:100000000C942A000C9447000C9447000C94470071
:100010000C9447000C947B070C9447000C94470009
:100020000C9447000C9447000C9447000C94470034
:100030000C9447000C9447000C9447000C94470024
:100040000C9447000C9447000C9447000C94470014
:100050000C94470011241FBECFE5D8E0DEBFCDBF12
:1000600013E0A0E6B0E0E6E6F0E102C005900D92F4
:10007000A63FB107D9F723E0A6EFB3E001C01D9278
:10008000AA3FB207E1F70E94EF060C9431080C94E6
:100090000000843008F072C0683008F06FC0413052
:1000A000A1F5813089F028F08230C9F0833011F158
:1000B00008952AB381E090E002C0880F991F6A95E5
:1000C000E2F7822B8ABB089527B381E090E002C05B
:1000D000880F991F6A95E2F7822B87BB089524B396
:1000E00081E090E002C0880F991F6A95E2F7822BA9
:1000F00084BB089521B381E090E002C0880F991F6E
:100100006A95E2F7822B81BB0895411137C0813097
:1001100091F028F08230D9F0833029F108952AB384
:1001200081E090E002C0880F991F6A95E2F7809500
:1001300082238ABB089527B381E090E002C0880F34
:10014000991F6A95E2F78095822387BB089524B3AF
:1001500081E090E002C0880F991F6A95E2F78095D0
:10016000822384BB089521B381E090E002C0880F10
:10017000991F6A95E2F78095822381BB08958430A8
:1001800058F56130A1F4813049F028F0823049F00F
:10019000833051F008958FEF8ABB08958FEF87BBAE
:1001A00008958FEF84BB08958FEF81BB089561118F
:1001B00013C0813049F028F0823049F0833051F08B
:1001C00008958AB31ABA089587B317BA089584B305
:1001D00014BA089581B311BA0895843008F072C03A
:1001E000683008F06FC04130A1F5813089F028F007
:1001F0008230C9F0833011F108952BB381E090E093
:1002000002C0880F991F6A95E2F7822B8BBB089575
:1002100028B381E090E002C0880F991F6A95E2F749
:10022000822B88BB089525B381E090E002C0880F3F
:10023000991F6A95E2F7822B85BB089522B381E06E
:1002400090E002C0880F991F6A95E2F7822B82BB6B
:100250000895411137C0813091F028F08230D9F0F3
:10026000833029F108952BB381E090E002C0880F1C
:10027000991F6A95E2F7809582238BBB089528B376
:1002800081E090E002C0880F991F6A95E2F780959F
:10029000822388BB089525B381E090E002C0880FD7
:1002A000991F6A95E2F78095822385BB089522B352
:1002B00081E090E002C0880F991F6A95E2F780956F
:1002C000822382BB0895843078F4813041F028F095
:1002D000823039F0833039F008956BBB089568BBE4
:1002E000089565BB089562BB0895CF93C82F40E081
:1002F00062E080E00E94ED0040E063E080E00E9468
:10030000ED006C2F81E00E94630141E064E080E039
:100310000E94ED008AE18A95F1F700C040E064E0B8
:1003200080E00E94ED008AE18A95F1F700C0CF914C
:100330000895CF93C82F41E062E080E00E94ED0075
:1003400040E063E080E00E94ED006C2F81E00E94BD
:1003500063018091F6038F5F8093F60341E064E0D0
:1003600080E00E94ED008AE18A95F1F700C040E04C
:1003700064E080E00E94ED008AE18A95F1F700C018
:10038000CF910895803418F481950E9475010895E5
:10039000CF93883038F4C82F88EB8C0F0E947501FA
:1003A000C093F703CF910895CF93C82F803438F4CA
:1003B00080E48C0F0E947501C093F60309C080ECA5
:1003C0008C0F803428F48C2F0E947501C093F603A3
:1003D000CF910895813059F440E060E080E00E94C0
:1003E000ED0041E061E080E00E94ED000895823080
:1003F00059F441E060E080E00E94ED0040E061E0FF
:1004000080E00E94ED000895833051F440E060E008
:1004100080E00E94ED0040E061E080E00E94ED009D
:100420000895CF93DF93D82FC62F603438F481E03E
:100430000E94EA018C2F0E94D4010AC080EC860F32
:10044000803430F482E00E94EA018C2F0E94D401B3
:10045000D83018F48D2F0E94C801DF91CF910895F4
:10046000EF92FF920F931F93CF93DF937C01D0E025
:1004700044C08091F6038B3768F08091F703883091
:1004800028F460E08F5F0E94110204C060E080E009
:100490000E941102C0E02EC06091F603603490F417
:1004A000F801808190E0FC01EE0FFF1FE80FF91FBB
:1004B000EE0FFF1FE05AFF4FEC0FF11D80810E94ED
:1004C000990117C06034A8F08091F7030E941102CF
:1004D000F801808190E0FC01EE0FFF1FE80FF91F8B
:1004E000EE0FFF1FE05AFF4FEC0FF11D80810E94BD
:1004F0009901CF5FC63080F2DF5F87010D0F111DBC
:10050000F80180818111B5CFDF91CF911F910F91BB
:10051000FF90EF9008951F93CF93DF93EC0180310C
:1005200027E2920758F4883E33E0930748F4843674
:10053000910540F40A9740F082E007C085E005C0CD
:1005400084E003C083E001C081E0833009F480C00F
:1005500038F4813009F4FCC0823009F4BAC02DC1EE
:10056000843071F1853049F128C16091F6038091A2
:10057000F7030E9411029E01329522952F702327C6
:100580003F702327A7E4B3E00E941708969587954C
:100590009695879596958795C096FC01EE0FFF1F5F
:1005A000E80FF91FEE0FFF1FE05AFF4FE10FF11D9B
:1005B00080810E9499011F5F01C010E01630A8F2EF
:1005C00010E043C06091F6038091F7030E9411028E
:1005D0009E01369527953695279536952795A5EC56
:1005E000B0E20E941708AC01529542954F70452722
:1005F0005F7045279A01ADECBCEC0E9417089695F8
:10060000879596958795969587959C01220F331F20
:10061000880F991F880F991F880F991F820F931FAA
:100620009A01281B390BC901C096FC01EE0FFF1F70
:100630008E0F9F1FFC01EE0FFF1FE05AFF4FE10FCF
:10064000F11D80810E9499011F5F163008F4BACF16
:1006500010E03DC06091F6038091F7030E94110203
:100660009E013695279536952795ABE7B4E10E9414
:100670001708AC01569547959A01ADECBCEC0E9469
:1006800017089695879596958795969587959C01D9
:10069000220F331F880F991F880F991F880F991FEA
:1006A000820F931F9A01281B390BC901C096FC01C8
:1006B000EE0FFF1F8E0F9F1FFC01EE0FFF1FE05A72
:1006C000FF4FE10FF11D80810E9499011F5F1630DD
:1006D00008F210E03BC06091F6038091F7030E949E
:1006E00011029E01ADECBCEC0E941708AC015695BE
:1006F000479556954795569547959A010E94170834
:100700009695879596958795969587959C01220F46
:10071000331F880F991F880F991F880F991F820F09
:10072000931F9A01281B390BC901C096FC01EE0FDB
:10073000FF1F8E0F9F1FFC01EE0FFF1FE05AFF4FA0
:10074000E10FF11D80810E9499011F5F163018F2A0
:1007500010E031C06091F6038091F7030E9411020E
:100760009E01ADECBCEC0E94170896958795969576
:100770008795969587959C01220F331F880F991FA7
:10078000880F991F880F991F820F931F9E01281BA6
:10079000390BC901C096FC01EE0FFF1F8E0F9F1F82
:1007A000FC01EE0FFF1FE05AFF4FE10FF11D8081AA
:1007B0000E9499011F5F163068F2DF91CF911F915F
:1007C0000895CF93C82F83E00E94EA018C2F0E94E6
:1007D000C801C0E004C080E00E949901CF5FC0342E
:1007E000D0F3CF910895CF93DF9383E00E94EA0185
:1007F000D0E00DC088EB8D0F0E947501C0E004C0F1
:1008000080E00E949901CF5FC034D0F3DF5FD83021
:1008100088F380E40E9475011092F60388EB0E9431
:1008200075011092F703DF91CF91089561E080E0A8
:100830000E94BF0061E081E00E94BF0040E060E0F4
:1008400080E00E94ED0040E061E080E00E94ED0069
:1008500041E067E080E00E94ED008EE30E947501B8
:100860008FE39FE10197F1F700C0000080E40E9450
:1008700075018FE39FE10197F1F700C0000088EB5D
:100880000E9475018FE39FE10197F1F700C000001E
:1008900080E00E94C2018FE39FE10197F1F700C061
:1008A00000008FE30E9475018FE39FE10197F1F74C
:1008B00000C000000E94F3038FE39FE10197F1F76E
:1008C00000C0000008952F923F924F925F926F9266
:1008D0007F928F929F92AF92BF92CF92DF92EF92D0
:1008E000FF920F931F93CF93DF93CDB7DEB7289777
:1008F0000FB6F894DEBF0FBECDBF482E4A015B0194
:100900000E944F07582E0E9451078C830E94560761
:1009100089830E9453072981233009F061C06C014B
:10092000E12CF12CC501B401A70196010E94D60764
:100930002F3F31054105510581F078F0BB27A52FE8
:10094000942F832F8C0188EE93E0B8010E94AE07AC
:100950007E836D83FF24F3941CC0A8EEB3E0A50151
:1009600094010E942608A70196010E94D607BB2782
:10097000A52F942F832F8C019C01AD01442755276F
:1009800060E472E48FE090E00E94F8073E832D83DC
:10099000F12C8C81823081F4252D30E02F5F3F4F88
:1009A00044E6429FC001439F900D1124992314F403
:1009B00081509F4F9A8383C09C81933009F07CC003
:1009C0002FEF30E02519310944E6429FC001439FD3
:1009D000900D1124992314F481509F4F9A836FC076
:1009E0002981213009F05FC06C01E12CF12CC50197
:1009F000B401A70196010E94D6072E3F81E0380777
:100A00004105510598F0CA01B9012EEF31E040E0EF
:100A100050E00E94D607890188EE93E0B9010E9458
:100A2000AE077E836D83FF24F3941EC0A8EEB3E06F
:100A3000A50194010E942608A70196010E94D607ED
:100A4000CA01B9012EEF31E040E050E00E94D60724
:100A500089014427552760E472E48FE090E00E940A
:100A6000F8073E832D83F12C9C81923051F424E6CB
:100A7000529EC00111246FEF70E00E94C2076A838A
:100A80001EC08C818330D1F46FEF70E09B0125197B
:100A9000310944E6429FC001439F900D11240E94FA
:100AA000C2076A830CC060E085E00E94110280E604
:100AB00093E00E9430027AC11A8201C01A8260E07B
:100AC00080E00E94110289E793E00E943002FF203B
:100AD00041F0C8010E948B0286E893E00E94300238
:100AE00007C0C8010E948B0285E893E00E94300293
:100AF00060E081E00E94110289E893E00E943002E8
:100B00002A81822F90E00E948B0286E993E00E9466
:100B100030021A820AC06A8182E00E94110288E1D2
:100B20000E9499018A818F5F8A839A8199239CF719
:100B300022E04216A9F084E0481691F098E04916A8
:100B400079F020E1421661F080E2481649F060E059
:100B500085E00E94110288E993E00E94300226C1DC
:100B6000642D70E080E091E00E94C2076B83A62EA6
:100B7000B72E862E9C819230B1F09330C9F091113E
:100B800009C060E085E00E9411028CEB93E00E94B6
:100B900030020CC160E085E00E94110280ED93E01C
:100BA0000E94300203C120E82C8381E08A8304C0C4
:100BB00091E09C8320E82A831F82312C1886DEC0B6
:100BC000852D642D0E94A2079F80980E8981833015
:100BD00009F055C044C0672D85E00E9411027914C8
:100BE00020F48A810E9499011DC0791004C08FEF02
:100BF0000E94990117C0971458F4C80101978C0DF1
:100C00009D1DE816F90624F48C810E9499010AC002
:100C1000C80101978C0D9D1DE816F90619F48FEF98
:100C20000E9499019885911118C0672D86E00E9455
:100C300011022F81271539F001501109C00ED11E64
:100C4000EC14FD0421F48CEF0E94990103C080E1B3
:100C50000E949901372C8F81381A739401C07F80CC
:100C6000E72CF12C850111279F81C92ED12CC801B9
:100C70008C0D9D1DE816F9060CF4ADCF79C02981C5
:100C8000213009F075C065C0622D85E00E94110217
:100C900088858170988590FD12C0291420F48A817E
:100CA0000E94990129C0291004C08FEF0E94990168
:100CB00023C0921408F58C810E9499011DC08823DD
:100CC000D9F0C7018C199D090150110909191109A1
:100CD0000817190724F48A810E9499010DC0801712
:100CE000910721F48FEF0E94990106C080179107A8
:100CF0001CF48C810E9499012885211112C0622D5B
:100D000086E00E9411028F81821104C08CEF0E9444
:100D1000990103C080E10E949901322C9F81391A08
:100D200016C02885213099F4622D86E00E941102B8
:100D300081E0681A7108C60CD71CEC14FD0421F47C
:100D40008CEF0E94990103C080E10E9499012394D5
:100D500001C02F80E22CF12C350177249F81C92E10
:100D6000D12C83010C0D1D1DE016F1060CF48CCF67
:100D700028852F5F28878F81880D8F839F819038EA
:100D800008F41ECF2981233011F0213079F48B81B2
:100D90008695632D681B87E00E9411028D819E81DC
:100DA0000E948B0282EF93E00E94300228960FB6D9
:100DB000F894DEBF0FBECDBFDF91CF911F910F9191
:100DC000FF90EF90DF90CF90BF90AF909F908F906B
:100DD0007F906F905F904F903F902F90089540E0EC
:100DE00066E082E00E94490040E067E082E00E9405
:100DF000490041E067E083E00E9449000E94160438
:100E00000E9432070E946E0780E00E944B0780EF2D
:100E10000E944D0740E054E264EF70E088E00E94D9
:100E200063042FEF85EA9EE0215080409040E1F777
:100E300000C000000E94F3030E94580780E00E9457
:100E40004B0788EC0E944D0780E00E94E10381E09F
:100E50000E94E10340E050E860E070E088E00E941A
:100E60006304FFCF85B58F7785BD85B5806485BD6B
:100E700085B5886085BD85B58F7E85BD85B5806269
:100E800085BD85B58E7F85BD85B58D7F85BD85B5D5
:100E9000846085BD089584BD089583BD089583B59C
:100EA000089582E0089580E490E0089583E0089535
:100EB00089B78F7B89BF89B78F7789BF82B58860F3
:100EC00082BD02B400FCFDCF02B401FCFDCF02B430
:100ED00002FCFDCF88B78F7B88BF089589B78F7BD1
:100EE00089BF89B78F7789BF82B5877F82BD88B771
:100EF0008F7B88BF08951F920F920FB60F92112417
:100F00002F933F934F935F936F937F938F939F9311
:100F1000AF93BF93EF93FF93E091F803F091F90340
:100F20000995FF91EF91BF91AF919F918F917F9123
:100F30006F915F914F913F912F910F900FBE0F9046
:100F40001F901895991B79E004C0991F961708F017
:100F5000961B881F7A95C9F780950895AA1BBB1B1D
:100F600051E107C0AA1FBB1FA617B70710F0A61BA9
:100F7000B70B881F991F5A95A9F780959095BC01CA
:100F8000CD01089597FB072E16F4009407D077FD46
:100F900009D00E94AE0707FC05D03EF490958195DC
:100FA0009F4F0895709561957F4F0895A1E21A2E85
:100FB000AA1BBB1BFD010DC0AA1FBB1FEE1FFF1FFD
:100FC000A217B307E407F50720F0A21BB30BE40B4D
:100FD000F50B661F771F881F991F1A9469F7609594
:100FE0007095809590959B01AC01BD01CF0108954E
:100FF000052E97FB1EF400940E940F0857FD07D0A2
:101000000E94D60707FC03D04EF40C940F085095AD
:101010004095309521953F4F4F4F5F4F08959095E4
:101020008095709561957F4F8F4F9F4F0895A29F38
:10103000B001B39FC001A39F700D811D1124911DAC
:10104000B29F700D811D1124911D08950E941708F3
:10105000A59F900DB49F900DA49F800D911D11240C
:061060000895F894FFCF93
:10106600000000000000000000000000000000007A
:10107600000000000000000000000000000000006A
:10108600000000000000000000000000000000005A
:10109600000000000000000000000000000000004A
:1010A600000000000000000000000000000000003A
:1010B600000000000000000000000000000000002A
:1010C600000000000000000000000000000000001A
:1010D600000000000000000000000000000000000A
:1010E60000000000000000000000000000000000FA
:1010F60000000000000000000000000000000000EA
:1011060000000000000000000000000000000000D9
:1011160000000000000000000000000000000000C9
:1011260000000000000000005F000000000700074C
:101136000000147F147F1400242A7F2A1200231330
:10114600086462003649552250000005030000007D
:10115600001C224100000041221C000014083E0829
:10116600140008083E080800005030000000080877
:101176000808080000606000000020100804020053
:101186003E5149453E0000427F40000042615149C0
:1011960046002141454B31001814127F10002745A7
:1011A600454539003C4A49493000017109050300AB
:1011B600364949493600064949291E000036360097
:1011C60000000056360000000814224100001414E6
:1011D60014141400004122140800020151090600EB
:1011E600324979413E007E1111117E007F494949FD
:1011F60036003E41414122007F4141221C007F4989
:10120600494941007F09090901003E4149497A00DF
:101216007F0808087F0000417F4100002040413FD1
:1012260001007F08142241007F40404040007F02B9
:101236000C027F007F0408107F003E4141413E00C2
:101246007F09090906003E4151215E007F091929DF
:10125600460046494949310001017F0101003F40EE
:1012660040403F001F2040201F003F4038403F00C5
:1012760063140814630007087008070061514945A4
:101286004300007F41410000020408102000004195
:10129600417F00000402010204004040404040003B
:1012A6000001020400002054545478007F4844444E
:1012B6003800384444442000384444487F003854B9
:1012C60054541800087E090102000C5252523E0086
:1012D6007F080404780000447D4000002040443D1F
:1012E60000007F102844000000417F4000007C047D
:1012F600180478007C080404780038444444380014
:101306007C1414140800081414187C007C080404C7
:101316000800485454542000043F444020003C40F8
:1013260040207C001C2040201C003C4030403C00FB
:101336004428102844000C5050503C004464544C3F
:10134600440000083641000000007F000000004114
:101356003608000010080810080078464146780054
:10136600506C656173652063686F6F7365206120DB
:1013760050574D204D6F6465004672657175656EF8
:1013860063793A20006D487A004475747920437970
:10139600636C653A200025005072657363616C6565
:1013A60072206D75737420626520322C20342C20D7
:1013B600382C203136206F72203332004F7574700E
:1013C600757420446973636F6E6E6563746564003B
:1013D6004261642043686F696365206F6620436FCE
:1013E6006D70617265204F7574707574204D6F64F1
:0613F60065006D730000AC
:00000001FF
